:020000040000FA
:042000008FEF36F038
:106CE400A861B0C001F0B1C002F0B2C003F0B3C0FB
:106CF40004F0120001500302F3CF05F0F4CF06F0C4
:106D040001500402F350062602500302F3500626F3
:106D140005C001F006C002F01200E40EF66E6C0E1F
:106D2400F76E000EF86E0900F5CFCAF00900F5CF32
:106D3400CBF000EE60F05A0EEE6AE806FDE1000EBC
:106D4400F86E0001D2EF3AF009500A100B100C1043
:106D5400D8B4AFEF36F0B1EF36F0E1EF36F0010E14
:106D64000D6EBBEF36F0D89009360A360B360C366A
:106D74000D2A0CAEC0EF36F0C2EF36F0B5EF36F0A8
:106D84000950055C0A5006580B5007580C50085817
:106D9400D8A0CFEF36F0D1EF36F0D9EF36F0095066
:106DA400055E0A50065A0B50075A0C50085AD890E0
:106DB4000C320B320A3209320D2EC2EF36F005C006
:106DC40005F006C006F007C007F008C008F012007E
:106DD40001EF37F0000E0001B56F010EB46F17EF2D
:106DE40037F0000E0001B56F040EB46F17EF37F0E3
:106DF400000E0001B56F100EB46F17EF37F0BA50E4
:106E0400030B156E166A1650000AD8B40CEF37F04F
:106E1400FAEF36F01550000AD8B4ECEF36F0010A58
:106E2400D8B4F3EF36F0FAEF36F0000E076E6C0EBE
:106E3400086EDC0E096E020E0A6ECAC015F0CBC0D5
:106E440016F0D89015361636D8901536163615C065
:106E540001F016C002F0B4C003F0B5C004F07CEC3D
:106E640036F001C00BF002C00CF00D6A0E6AA5ECFE
:106E740038F00704BB6EBD86BD84BA80BA92BA846A
:106E84009494120019041A10D8A44BEF37F04DEF64
:106E940037F072EF37F0D8901B34D96E1C34DA6EA9
:106EA400A00ED926000EDA22DE50DE10D8A45DEF43
:106EB40037F05FEF37F072EF37F0D8901B34D96EAC
:106EC4001C34DA6EA00ED926000EDA22010EDE6E14
:106ED400000EDD6E000E1A6E010E196E9EEF37F075
:106EE40019501A10D8A479EF37F07BEF37F09AEFE6
:106EF40037F0D8901B34D96E1C34DA6EA00ED92624
:106F0400000EDA22DE04DE10D8A48BEF37F08DEF0A
:106F140037F09AEF37F0D8901B34D96E1C34DA6E00
:106F2400A00ED926000EDA22000EDE6E000EDD6EF3
:106F3400000E1A6E000E196E1200573458345E6E2D
:106F44005E50D8A4A8EF37F0AAEF37F0B4EF37F0CB
:106F5400000E556E000E566E000E576E000E586EE3
:106F640021EF38F055C059F056C05AF057C05BF0C5
:106F740058C05CF0200EC4EF37F0D8905C325B321E
:106F84005A325932E82EBFEF37F059505D6E578EA2
:106F9400FF0E5516FF0E5616FF0E5716000E581606
:106FA400960E5E5E5EBEDBEF37F0D9EF37F0F1EFA1
:106FB40037F05E50800A970FD8B0E3EF37F0E5EF73
:106FC40037F0E7EF37F0AAEF37F0D890583257325E
:106FD400563255325E3EE7EF37F009EF38F01F0EB8
:106FE4005E64F7EF37F0F9EF37F001EF38F0AAEF0E
:106FF40037F0D89055365636573658365E065E50BA
:10700400D8A407EF38F009EF38F0FBEF37F05D5004
:10701400D8B40FEF38F011EF38F019EF38F0581EEC
:10702400571E561E556C000E56225722582255C024
:1070340055F056C056F057C057F058C058F01200DB
:10704400040E0001BB5DD8B02AEF38F02CEF38F005
:10705400A4EF38F0B4C003F0B5C004F0CAC001F026
:10706400CBC002F07CEC36F001C00BF002C00CF097
:107074000D6A0E6A000E076E6C0E086EDC0E096E49
:10708400020E0A6EA5EC38F007C015F008C016F021
:1070940009C017F00AC018F0010EF8EC39F015C059
:1070A40040F016C041F017C042F018C043F0000E83
:1070B400276EC00E286E7F0E296E440E2A6EBAC04B
:1070C40015F0BBC016F0176A186A000EF8EC39F018
:1070D40015C023F016C024F017C025F018C026F000
:1070E4001EEC3CF023C03CF024C03DF025C03EF033
:1070F40026C03FF0EBEC3DF03CC055F03DC056F0EF
:107104003EC057F03FC058F09FEC37F055C0BAF07E
:1071140056C0BBF00001BAB192EF38F095EF38F0E9
:10712400BD8A96EF38F0BD9ABD98BAC0BCF0BBC01A
:10713400BDF00001D890BD33BC33D890BD33BC330F
:10714400BC51BE6E1200000E106E0EBEAEEF38F0D3
:10715400ACEF38F0B8EF38F00E1E0D1E0C1E0B6CA1
:10716400000E0C220D220E22010E106E0ABEBFEF7D
:1071740038F0BDEF38F0C9EF38F00A1E091E081EBA
:10718400076C000E082209220A22010E101A000EB2
:10719400116E000E126E000E136E000E146E0B5064
:1071A4000C100D100E10D8B4DAEF38F0DCEF38F014
:1071B40012EF39F0010E0F6EE6EF38F0D8900B366F
:1071C4000C360D360E360F2A0EAEEBEF38F0EDEF1F
:1071D40038F0E0EF38F0D890113612361336143602
:1071E4000B50075C0C5008580D5009580E500A58A3
:1071F400D8A0FFEF38F001EF39F00AEF39F00B5067
:10720400075E0C50085A0D50095A0E500A5A118044
:10721400D8900E320D320C320B320F2EEDEF38F0C7
:107224001050D8B418EF39F01AEF39F022EF39F0D2
:10723400141E131E121E116C000E1222132214228D
:1072440011C007F012C008F013C009F014C00AF00E
:10725400120005500610D8B432EF39F034EF39F08B
:1072640062EF39F0D8900934D96E0A34DA6E900E90
:10727400D926000EDA22DE50DE10D8A444EF39F00D
:1072840046EF39F062EF39F073EC36F0600E0B6EB6
:10729400000E0C6ED8900934D96E0A34DA6ED89088
:1072A400D936DA360B50D9260C50DA2201C0DEFF6B
:1072B40002C0DEFF03C0DEFF04C0DEFFD9EF39F0F9
:1072C40005500610D8B469EF39F06BEF39F083EF4D
:1072D40039F0D8900934D96E0A34DA6E800ED92682
:1072E400000EDA22DE50DE10D8B47BEF39F07DEFE9
:1072F40039F083EF39F0000E066E010E056EF7EFDC
:1073040039F005500610D8B48AEF39F08CEF39F013
:10731400D9EF39F007C00BF008C00CF0000E0CBE1A
:10732400FF0E0D6E0E6E600E0F6E000E106ED89076
:107334000934D96E0A34DA6ED890D936DA360F5059
:10734400D9261050DA22DECF11F0DECF12F0DECFD4
:1073540013F0DECF14F073EC36F01150015C156EAF
:1073640012500258166E13500358176E14500458D6
:10737400186E0B50155C0C5016580D5017580E50C3
:107384001858D8A0C8EF39F0CAEF39F0D9EF39F05E
:10739400D8900934D96E0A34DA6E800ED926000EDC
:1073A400DA22010EDE6E000EDD6E7DEF39F0D8902C
:1073B4000934D96E0A34DA6E800ED926000EDA2228
:1073C400000EDE6E000EDD6ED8900934D96E0A34DC
:1073D400DA6E900ED926000EDA2205C0DEFF06C052
:1073E400DDFF000E066E000E056E12001D6E1D50B0
:1073F400D8B4FFEF39F001EF3AF023EF3AF018BEBA
:1074040008EF3AF006EF3AF023EF3AF015C019F01E
:1074140016C01AF017C01BF018C01CF0191E1A1E53
:107424001B1E1C1E192A000E1A221B221C2219C004
:107434001FF01AC020F01BC021F01CC022F02BEF5B
:107444003AF015C01FF016C020F017C021F018C084
:1074540022F01550161017101810D8A434EF3AF073
:1074640036EF3AF040EF3AF0000E156E000E166E4D
:10747400000E176E000E186ED1EF3AF0960E1E6EC7
:107484004AEF3AF01E2AD8902232213220321F329B
:10749400000E1F14196E000E20141A6E000E211413
:1074A4001B6EFE0E22141C6E19501A101B101C1099
:1074B400D8A45FEF3AF061EF3AF044EF3AF06FEF9F
:1074C4003AF01E2A010E1F26000E2022212222221B
:1074D400D8902232213220321F32000E1F14196E2E
:1074E400000E20141A6E000E21141B6EFF0E2214BF
:1074F4001C6E19501A101B101C10D8A484EF3AF0FB
:1075040086EF3AF063EF3AF08EEF3AF01E06D89029
:107514001F3620362136223621BE93EF3AF095EFFE
:107524003AF09DEF3AF0020E1E609BEF3AF09DEFA9
:107534003AF088EF3AF01EB0A2EF3AF0A4EF3AF036
:10754400A5EF3AF0219ED8901E321EC019F01A6A97
:107554001B6A1C6A19C01CF01B6A1A6A196A195042
:107564001F121A5020121B5021121C5022121D509F
:10757400D8B4BFEF3AF0C1EF3AF0C9EF3AF018BE11
:10758400C8EF3AF0C6EF3AF0C9EF3AF0228E1FC0C6
:1075940015F020C016F021C017F022C018F0120018
:1075A400949C9490938C8B8C8B90000E0001C96FEB
:1075B400020EC86F000EC36F000EC26F000EC76FBD
:1075C400000EC66FFE0EBE6FFF0EBF6FFF0EC06FC4
:1075D4007F0EC16FEAEC36F0C8C001F0C9C002F0FA
:1075E400000E046ECC0E036E7CEC36F001C0C4F0C9
:1075F40002C0C5F0C4C0BAF0C5C0BBF022EC38F07C
:10760400000E0001B96F000EB86F000EB76F000EC8
:10761400B66F81BC10EF3BF014EF3BF05F6A5F2A5A
:1076240015EF3BF05F6A5F50056E066A000E086E48
:10763400140E076E0001B651096EB7510A6EB64BAF
:10764400B72B2BEC39F005C019F006C01AF0000175
:10765400B8511B6EB9511C6EB84BB92B44EC37F0C2
:1076640019501A10D8B439EF3BF03BEF3BF064EFFC
:107674003BF00001C84BC92BC9BF4AEF3BF0C951CD
:1076840009E1060EC85DD8A04AEF3BF04CEF3BF091
:1076940050EF3BF0000EC96F000EC86FC8C001F078
:1076A400C9C002F0000E046ECC0E036E7CEC36F002
:1076B40001C0C4F002C0C5F0C4C0BAF0C5C0BBF07C
:1076C40022EC38F073EC36F001C005F002C006F08D
:1076D40003C007F004C008F0C80E096E000E0A6E5D
:1076E400000E0B6E000E0C6EA6EC36F00850071060
:1076F400061007E1650E055CD8B083EF3BF086EF1A
:107704003BF0010E87EF3BF0000E196E1A6A000180
:10771400B8511B6EB9511C6EB84BB92B44EC37F001
:1077240019501A10D8B499EF3BF09BEF3BF0D2EF0D
:107734003BF00001C651C711D8A4A3EF3BF0A5EF5D
:107744003BF0D2EF3BF08BBCAAEF3BF0ACEF3BF04D
:10775400C8EF3BF08B8CC24BC32BC851C25DC351E5
:10776400800A5F6EC951800A5F58D8A0BCEF3BF015
:10777400BEEF3BF0D2EF3BF0000EC36F000EC26FC2
:10778400000EC76F010EC66FD2EF3BF0C851C9118E
:10779400D8B4CFEF3BF0D1EF3BF0D2EF3BF08B9C72
:1077A400C6C005F0C7C006F0030E086EE80E076EEB
:1077B4000001B651096EB7510A6EB64BB72B2BECCC
:1077C40039F005500610D8B4EAEF3BF0ECEF3BF08B
:1077D400F1EF3BF0000E0001C76F000EC66F100EF4
:1077E4005F6E940EE82EFED75F2EFCD700D0010EFC
:1077F4000001B027000EB123B223B323BE51B01948
:107804000DE1BF51B1190AE1C051B21907E1C151EB
:10781400B319D8A410EF3CF012EF3CF002EF3BF0A8
:10782400000EB06F000EB16F000EB26F000EB36F9A
:1078340002EF3BF000EF10F02650800B336E265021
:1078440026243A6E25AE29EF3CF02BEF3CF02CEFCA
:107854003CF03A803A50D8B432EF3CF034EF3CF08C
:1078640049EF3CF03A28D8A43AEF3CF03CEF3CF026
:1078740044EF3CF0000E236E000E246E000E256EC5
:10788400000E266E258E000E266E51EF3CF0000E83
:10789400236E000E246E000E256E000E266E2A50F6
:1078A400800B331A2A502A243B6E29AE5CEF3CF03D
:1078B4005EEF3CF05FEF3CF03B803B50D8B465EFAB
:1078C4003CF067EF3CF07CEF3CF03B28D8A46DEF34
:1078D4003CF06FEF3CF077EF3CF0000E276E000EAB
:1078E400286E000E296E000E2A6E298E000E2A6E56
:1078F40084EF3CF0000E276E000E286E000E296EF9
:10790400000E2A6E2750281029102A10D8A48DEFB3
:107914003CF08FEF3CF0A7EF3CF0000E236E000E1E
:10792400246E000E256E000E266E800E25127F0E2C
:1079340026123350261223C023F024C024F025C07D
:1079440025F026C026F0EAEF3DF03A50D8A4ADEF7A
:107954003CF0AFEF3CF0B9EF3CF0000E236E000EAC
:10796400246E000E256E000E266EEAEF3DF03B50AD
:107974003AC02BF02C6A2B5E000E2C5A7F0E2B245F
:10798400346E000E2C20356E23C02FF024C030F04E
:1079940025C031F026C032F0000E236E000E246E96
:1079A400000E256E000E266E000E366E000E376E2B
:1079B400000E386E000E396E000E3B6E1AEF3DF06D
:1079C4003B50D8B4E8EF3CF0EAEF3CF001EF3DF077
:1079D400D8902F36303631363236D8902336243686
:1079E4002536263639AEF9EF3CF0FBEF3CF0FCEFE0
:1079F4003CF02380D890363637363836393627501F
:107A04002F5C28503058295031582A503258D8A069
:107A14000EEF3DF010EF3DF019EF3DF0398C27509B
:107A24002F5E2850305A2950315A2A50325A3B2A54
:107A3400190E3B6420EF3DF022EF3DF0E2EF3CF005
:107A44002F50301031103210D8B42BEF3DF02DEF01
:107A54003DF045EF3DF0368045EF3DF0D8902336BC
:107A640024362536263639AE3AEF3DF03CEF3DF06C
:107A74003DEF3DF02380D8903636373638363936E8
:107A84003406D8A0350625AE4AEF3DF04CEF3DF064
:107A940030EF3DF0000E3B6E39AE53EF3DF055EF45
:107AA4003DF079EF3DF0FF0E36142B6EFF0E3714C8
:107AB4002C6EFF0E38142D6E7F0E39142E6E2B5043
:107AC4002C102D102E10D8B46AEF3DF06CEF3DF061
:107AD40070EF3DF0010E3B6E79EF3DF023A075EFA2
:107AE4003DF077EF3DF079EF3DF06CEF3DF03B502A
:107AF400D8B47FEF3DF081EF3DF0A5EF3DF0010EEE
:107B04002326000E24222522262226A08CEF3DF0D7
:107B14008EEF3DF0A5EF3DF023C02BF024C02CF0F8
:107B240025C02DF026C02EF02E342E322D322C32CC
:107B34002B322BC023F02CC024F02DC025F02EC0F6
:107B440026F0344A352A35BEB0EF3DF0355008E111
:107B54003428D8A0B0EF3DF0B2EF3DF0BDEF3DF0DA
:107B6400000E356E3468000E236E000E246E000E77
:107B7400256E000E266E35BECAEF3DF0355006E187
:107B84003404D8B0C8EF3DF0CAEF3DF0D8EF3DF073
:107B9400000E356E000E346E000E236E000E246E41
:107BA400000E256E000E266E000E336E34C03AF0C1
:107BB4003AA0DFEF3DF0E1EF3DF0E4EF3DF0258E3C
:107BC400E5EF3DF0259ED8903A30266E9BEF3CF0D1
:107BD40012003F50800B486E3F503F244E6E3EAE25
:107BE400F6EF3DF0F8EF3DF0F9EF3DF04E804E50EA
:107BF400D8B4FFEF3DF001EF3EF014EF3EF04E2815
:107C0400D8A407EF3EF009EF3EF011EF3EF0000E6E
:107C14003C6E000E3D6E000E3E6E000E3F6E3E8EBC
:107C24001CEF3EF0000E3C6E000E3D6E000E3E6EEC
:107C3400000E3F6E4350800B481A435043244D6E50
:107C440042AE27EF3EF029EF3EF02AEF3EF04D80A2
:107C54004D50D8B430EF3EF032EF3EF045EF3EF0F9
:107C64004D28D8A438EF3EF03AEF3EF042EF3EF014
:107C7400000E406E000E416E000E426E000E436E0A
:107C8400428E4DEF3EF0000E406E000E416E000E2F
:107C9400426E000E436E4D50D8B453EF3EF055EF94
:107CA4003EF05DEF3EF04E50D8A45BEF3EF05DEF4A
:107CB4003EF067EF3EF0000E3C6E000E3D6E000E8F
:107CC4003E6E000E3F6EFFEF3FF042503C02F3CF9A
:107CD40053F0F4CF54F05350496E4A6A4B6A4C6ADD
:107CE40054504F6E506A516A526A41503D02F3CF6C
:107CF40053F0F4CF54F053504926000E4A224B223D
:107D04004C2254504F26000E5022512252224050F1
:107D14003E02F3CF53F0F4CF54F053504926000EF3
:107D24004A224B224C2254504F26000E50225122FC
:107D340052224BC04CF04AC04BF049C04AF0496A49
:107D440040503D02F3CF53F0F4CF54F05350492642
:107D540054504A22000E4B22000E4C2241503C0249
:107D6400F3CF53F0F4CF54F05350492654504A22E1
:107D7400000E4B22000E4C224BC04CF04AC04BF07C
:107D840049C04AF0496A40503C02F3CF53F0F4CF63
:107D940054F05350492654504A22000E4B22000EF0
:107DA4004C2242503D02F3CF53F0F4CF54F05350E1
:107DB4004F2654505022000E5122000E52224150A0
:107DC4003E02F3CF53F0F4CF54F053504F265450A7
:107DD4005022000E5122000E522242503E02F3CF96
:107DE40053F0F4CF54F05350446E5450456E466AE9
:107DF400476A46C047F045C046F044C045F0446A6F
:107E040044504F264550502246505122475052224A
:107E140049C044F04AC045F04BC046F04CC047F05E
:107E2400190E1AEF3FF0D8904732463245324432A9
:107E3400E82E15EF3FF044504F264550502246504F
:107E44005122475052224BC04CF04AC04BF049C01B
:107E54004AF0496A4D504EC044F0456A4426000E2B
:107E64004522820E4424536EFF0E4520546E50EF7B
:107E74003FF0D8904F365036513652364CAE45EF1F
:107E84003FF047EF3FF048EF3FF04F80D89049363E
:107E94004A364B364C365306D8A0540651AE55EFED
:107EA4003FF057EF3FF03BEF3FF0000E4D6E4CAE0E
:107EB4005EEF3FF060EF3FF084EF3FF0FF0E4914B8
:107EC400446EFF0E4A14456EFF0E4B14466E7F0E31
:107ED4004C14476E4450451046104710D8B475EF03
:107EE4003FF077EF3FF07BEF3FF0010E4D6E84EFF4
:107EF4003FF04FA080EF3FF082EF3FF084EF3FF080
:107F040077EF3FF04D50D8B48AEF3FF08CEF3FF05D
:107F1400B0EF3FF0010E4F26000E502251225222A4
:107F240052A097EF3FF099EF3FF0B0EF3FF04FC012
:107F340044F050C045F051C046F052C047F04734B9
:107F4400473246324532443244C04FF045C050F0C7
:107F540046C051F047C052F0534A542A54BEBBEFB6
:107F64003FF0545008E15328D8A0BBEF3FF0BDEFD9
:107F74003FF0C7EF3FF0000E4F6E000E506E800EC4
:107F8400516E7F0E526EF5EF3FF054BED4EF3FF0CA
:107F9400545006E15304D8B0D2EF3FF0D4EF3FF091
:107FA400E0EF3FF0000E4F6E000E506E000E516E6B
:107FB400000E526E000E486EF5EF3FF053C04EF0C7
:107FC400FF0E4F16FF0E50167F0E5116000E52165E
:107FD4004EA0EFEF3FF0F1EF3FF0F2EF3FF0518EA4
:107FE400D8904E30526E485052124FC03CF050C0A0
:0C7FF4003DF051C03EF052C03FF01200C2
:020000040020DA
:08000000FFFFFFFFFFFFFFFF00
:020000040030CA
:0E00000000255F3FFFD385FF0FC00FE00F40CC
:00000001FF
